:020000041000EA
:100000006F10F0216F10B0216F1070216F10302130
:100010006F10F0206F10B0206F1070206F10302024
:100020006F10F01F6F10B01F6F10701F6F10301F18
:100030006F10F01E6F10B01E6F10701E6F10301E0C
:100040006F10D0166F1030306F10F02F6F10B02F70
:100050006F10B0066F10302F6F10F02E6F10B02E93
:100060006F10702E6F10302E6F10F02D6F10B02D9E
:100070006F10702D6F10302D6F10F02C6F10B02C92
:100080006F1050266F10B0196F107019970701008C
:100090009387C70994431307D0076348D7043706EB
:1000A0000211144617070100130707089305F0070C
:1000B000ED9A14C610439306160014C39706010068
:1000C000938686FAB2962380A6009443850694C34D
:1000D0001C4363D6F5009707010023A707043707E1
:1000E00002111C4793E747001CC78280854717070A
:1000F0000100232FF70082801971B7D5CCCCA6CC94
:10010000BEDAA410B7070010CEC8D2C666DC6ADA21
:100110006ED8B2D4B6D6BAD8C2DCC6DEA2CECACAAF
:10012000D6C4DAC2DEC062DE26CC17370000130761
:10013000A74B9308500493025002170601001306C0
:10014000E6FE1308D007B7060211170501001305D4
:10015000A5FD170E0100130E2EF11303F007130A6D
:100160000003973900009389E91E130FC101A54EC2
:10017000938CF7FF938DD5CC138DC5CC638A580A29
:100180001C426344F80A9C46ED9B9CC61C41938527
:1001900017000CC1F297238017011C4285071CC26F
:1001A0001C416356F3009707010023AF07F69C46F6
:1001B0001309170093E747009CC6834817004A8736
:1001C000E39E08FA7644E6445649C649364AA64AAA
:1001D000164B864B725CE25C525DC25D09618280A7
:1001E000832806008C409104634E181F83AF86005D
:1001F00093F8F50F93F5BFFF8CC60C41938F150054
:100200002320F501F295238015010C4285050CC2CF
:100210000C416356B3009705010023A705F08C46F7
:1002200093E545008CC66391071C1309170071B74D
:1002300083481700638D4805938708FD93F7F70FF0
:1002400005079303000263EAFE248147BE8F93975C
:100250002F00FE9705078607C69783480700938FF0
:1002600007FD938508FD93F5F50FE3F2BEFEFE87CB
:10027000E38A08F4938588FA93F5F50F930F00024B
:10028000E3E0BFF08A05CE958C41CE9582850507C7
:10029000930300035DBF83A80400014C910463C66F
:1002A00008248145294911A0FE88B3FF28032E8424
:1002B0008505B30ABF00938F0F03A38FFAFFB3DF47
:1002C0002803E3E31EFF13091700630D0C2E638A56
:1002D000431793880502930A01011304D002D698AC
:1002E000938F1500238688FE63DCFF0483280600B5
:1002F0006343180583A8860093F8B8FF23A416016A
:10030000832805001384180000C1F2982380780028
:1003100083280600850823201601832805006356DC
:1003200013019708010023A108E083A8860093E841
:10033000480023A41601FD17E3CAFFFAE38F0FE676
:10034000FA9511A0BE851C42634DF8029C4683C8F5
:100350000500ED9B9CC61C41938F17002320F501DF
:10036000F297238017011C4285071CC21C4163566B
:10037000F3009707010023A907DA9C4693E747009B
:100380009CC69387F5FFE31FBFFA05BD83A8040051
:10039000014C910439B783A80400910483CF08006D
:1003A00063820F040C428508E34AB8FE8C46ED993F
:1003B0008CC60C411384150000C1F2952380F50111
:1003C0000C4285050CC20C416356B3009705010031
:1003D00023AC05D48C4693E545008CC683CF08003A
:1003E000E3920FFCE38307E4FD55814F13091700E7
:1003F000F5BD834517009308C00613091700638AEB
:10040000150F930F500783A8040091046389F51911
:10041000014C63D50800B3081041054C8145A94A39
:1004200011A0FE88B3FF58032E848505330BBF004F
:10043000938F0F03A30FFBFFB3DF5803E3E31EFF0C
:1004400069B5832806006346180583A8860093F8DB
:10045000B8FF23A4160183280500938F18002320DA
:10046000F501F298930FD0022380F801832806004B
:100470008508232016018328050063561301970879
:10048000010023A308CA83A8860093E8480023A498
:100490001601AE8FFD17A28581BD8147D1BB814A70
:1004A00080407A8991048145130B900321A89D080F
:1004B000B3E81A01230019011180938F1500050973
:1004C00019CCFE859378F40093E80803E3611BFFE1
:1004D000230019011180938F150005097DF0130980
:1004E000170019B5930A000265BFB3081041054C07
:1004F0004DBB034427009D04E198930F500783A848
:100500000400CC40A104630BF40B63CE0508AE8F4E
:100510004A87014CC68A814593984F0013D4CA017B
:1005200033E4880033749401B3F89A0113D98F012E
:10053000A298CA981544B3F888027E892EC685050C
:10054000330BBF0056C4B3881A4133B41A01338445
:100550008F403304B403B38FA803B3BBB803A29F87
:10056000B388B803DE9F1394FF0193DF1F0093D875
:100570001800B368140113942800469406043384C9
:100580008A4013040403A30F8BFEC68AE31609F8FE
:100590002244E3E38EF83244130917003DB34A873F
:1005A000014C0509A5BD33371001B305B040B38F29
:1005B000E540B30810414A87054CA9BF0907AE8F33
:1005C000014C89BFAE8FA28505B31971B7D5CCCCCC
:1005D000A6CCBEDAA410B7070010CEC8D2C666DC1F
:1005E0006ADA6ED8B2D4B6D6BAD8C2DCC6DEA2CE2B
:1005F000CACAD6C4DAC2DEC062DE26CC1737000013
:10060000130747FF930830059302500217060100B5
:100610001306C6B11308D007B7060211170501006B
:10062000130585B0170E0100130E0EA41303F00777
:10063000130A000397390000938909DA130FC101E7
:10064000A54E938CF7FF938DD5CC138DC5CC638AC3
:10065000580A1C426344F80A9C46ED9B9CC61C4108
:10066000938517000CC1F297238017011C42850760
:100670001CC21C416356F3009707010023A607AA7A
:100680009C461309170093E747009CC68348170050
:100690004A87E39E08FA7644E6445649C649364AF4
:1006A000A64A164B864B725CE25C525DC25D0961E4
:1006B0008280832806008C409104634E181F83AF0C
:1006C000860093F8F50F93F5BFFF8CC60C41938F0E
:1006D00015002320F501F295238015010C428505B4
:1006E0000CC20C416356B3009705010023AE05A26E
:1006F0008C4693E545008CC66391071C13091700CF
:1007000071B783481700638D4805938708FD93F7F9
:10071000F70F05079303000263EAFE248147BE8FAB
:1007200093972F00FE9705078607C6978348070013
:10073000938F07FD938508FD93F5F50FE3F2BEFE59
:10074000FE87E38A08F4938588FA93F5F50F930FF3
:100750000002E3E0BFF08A05CE958C41CE958285FC
:100760000507930300035DBF83A80400014C9104B7
:1007700063C608248145294911A0FE88B3FF2803D8
:100780002E848505B30ABF00938F0F03A38FFAFF52
:10079000B3DF2803E3E31EFF13091700630D0C2EDC
:1007A000638A431793880502930A01011304D00258
:1007B000D698938F1500238688FE63DCFF04832878
:1007C00006006343180583A8860093F8B8FF23A4A6
:1007D0001601832805001384180000C1F2982380B5
:1007E0007800832806008508232016018328050049
:1007F000635613019708010023A8089283A8860076
:1008000093E8480023A41601FD17E3CAFFFAE38F1B
:100810000FE6FA9511A0BE851C42634DF8029C4676
:1008200083C80500ED9B9CC61C41938F17002320B5
:10083000F501F297238017011C4285071CC21C4159
:100840006356F3009707010023A0078E9C4693E7A9
:1008500047009CC69387F5FFE31FBFFA05BD83A839
:100860000400014C910439B783A80400910483CF9C
:10087000080063820F040C428508E34AB8FE8C46E8
:10088000ED998CC60C411384150000C1F2952380AC
:10089000F5010C4285050CC20C416356B300970567
:1008A000010023A305888C4693E545008CC683CFC1
:1008B0000800E3920FFCE38307E4FD55814F130921
:1008C0001700F5BD834517009308C00613091700EC
:1008D000638A150F930F500783A80400910463895E
:1008E000F519014C63D50800B3081041054C81454A
:1008F000A94A11A0FE88B3FF58032E848505330B47
:10090000BF00938F0F03A30FFBFFB3DF5803E3E395
:100910001EFF69B5832806006346180583A8860074
:1009200093F8B8FF23A4160183280500938F1800BD
:100930002320F501F298930FD0022380F801832839
:10094000060085082320160183280500635613013D
:1009500097F8000023AA087C83A8860093E8480043
:1009600023A41601AE8FFD17A28581BD8147D1BB9F
:10097000814A80407A8991048145130B900321A814
:100980009D08B3E81A01230019011180938F150007
:10099000050919CCFE859378F40093E80803E36118
:1009A0001BFF230019011180938F150005097DF0AD
:1009B0001309170019B5930A000265BFB308104167
:1009C000054C4DBB034427009D04E198930F50074D
:1009D00083A80400CC40A104630BF40B63CE05088C
:1009E000AE8F4A87014CC68A814593984F0013D435
:1009F000CA0133E4880033749401B3F89A0113D91F
:100A00008F01A298CA981544B3F888027E892EC631
:100A10008505330BBF0056C4B3881A4133B41A019D
:100A200033848F403304B403B38FA803B3BBB8033C
:100A3000A29FB388B803DE9F1394FF0193DF1F00CA
:100A400093D81800B3681401139428004694060440
:100A500033848A4013040403A30F8BFEC68AE31673
:100A600009F82244E3E38EF83244130917003DB33A
:100A70004A87014C0509A5BD33371001B305B040C5
:100A8000B38FE540B30810414A87054CA9BF090759
:100A9000AE8F014C89BFAE8FA28505B31971B7D552
:100AA000CCCCA6CCBEDAA410B7070010CEC8D2C6F4
:100AB00066DC6ADA6ED8B2D4B6D6BAD8C2DCC6DE84
:100AC000A2CECACAD6C4DAC2DEC062DE26CC1737CE
:100AD00000001307E7B29308D0049302500217F600
:100AE00000001306A6641308D007B706021117F515
:100AF00000001305656317FE0000130EEE56130386
:100B0000F007130A00039739000093892995130F02
:100B1000C101A54E938CF7FF938DD5CC138DC5CC19
:100B2000638A580A1C426344F80A9C46ED9B9CC6A3
:100B30001C41938517000CC1F297238017011C42BA
:100B400085071CC21C416356F30097F7000023ADD4
:100B5000075C9C461309170093E747009CC683482F
:100B600017004A87E39E08FA7644E6445649C64988
:100B7000364AA64A164B864B725CE25C525DC25DF9
:100B800009618280832806008C409104634E181FFF
:100B900083AF860093F8F50F93F5BFFF8CC60C4129
:100BA000938F15002320F501F295238015010C4247
:100BB00085050CC20C416356B30097F5000023A5D0
:100BC00005568C4693E545008CC66391071C1309B6
:100BD000170071B783481700638D4805938708FD98
:100BE00093F7F70F05079303000263EAFE2481479A
:100BF000BE8F93972F00FE9705078607C6978348F9
:100C00000700938F07FD938508FD93F5F50FE3F239
:100C1000BEFEFE87E38A08F4938588FA93F5F50F04
:100C2000930F0002E3E0BFF08A05CE958C41CE958C
:100C300082850507930300035DBF83A80400014C70
:100C4000910463C608248145294911A0FE88B3FF99
:100C500028032E848505B30ABF00938F0F03A38F4B
:100C6000FAFFB3DF2803E3E31EFF13091700630D48
:100C70000C2E638A431793880502930A010113041B
:100C8000D002D698938F1500238688FE63DCFF047C
:100C9000832806006343180583A8860093F8B8FFED
:100CA00023A41601832805001384180000C1F298BC
:100CB00023807800832806008508232016018328D6
:100CC00005006356130197F8000023AF084483A87A
:100CD000860093E8480023A41601FD17E3CAFFFA33
:100CE000E38F0FE6FA9511A0BE851C42634DF80212
:100CF0009C4683C80500ED9B9CC61C41938F170042
:100D00002320F501F297238017011C4285071CC29E
:100D10001C416356F30097F7000023A707409C4649
:100D200093E747009CC69387F5FFE31FBFFA05BD15
:100D300083A80400014C910439B783A804009104EE
:100D400083CF080063820F040C428508E34AB8FE93
:100D50008C46ED998CC60C411384150000C1F295A8
:100D60002380F5010C4285050CC20C416356B3008B
:100D700097F5000023AA053A8C4693E545008CC6FA
:100D800083CF0800E3920FFCE38307E4FD55814F16
:100D900013091700F5BD834517009308C006130912
:100DA0001700638A150F930F500783A8040091045E
:100DB0006389F519014C63D50800B3081041054C4F
:100DC0008145A94A11A0FE88B3FF58032E848505EA
:100DD000330BBF00938F0F03A30FFBFFB3DF580349
:100DE000E3E31EFF69B5832806006346180583A860
:100DF000860093F8B8FF23A4160183280500938F7B
:100E000018002320F501F298930FD0022380F801F7
:100E100083280600850823201601832805006356D1
:100E2000130197F8000023A1083083A8860093E8F7
:100E3000480023A41601AE8FFD17A28581BD81470E
:100E4000D1BB814A80407A8991048145130B90037C
:100E500021A89D08B3E81A01230019011180938F7E
:100E60001500050919CCFE859378F40093E8080372
:100E7000E3611BFF230019011180938F1500050901
:100E80007DF01309170019B5930A000265BFB30876
:100E90001041054C4DBB034427009D04E198930F7E
:100EA000500783A80400CC40A104630BF40B63CE6D
:100EB0000508AE8F4A87014CC68A814593984F003A
:100EC00013D4CA0133E4880033749401B3F89A014F
:100ED00013D98F01A298CA981544B3F888027E8965
:100EE0002EC68505330BBF0056C4B3881A4133B4F0
:100EF0001A0133848F403304B403B38FA803B3BB08
:100F0000B803A29FB388B803DE9F1394FF0193DF59
:100F10001F0093D81800B368140113942800469456
:100F2000060433848A4013040403A30F8BFEC68A8D
:100F3000E31609F82244E3E38EF83244130917005C
:100F40003DB34A87014C0509A5BD33371001B305F0
:100F5000B040B38FE540B30810414A87054CA9BFA4
:100F60000907AE8F014C89BFAE8FA28505B31971F9
:100F7000B7D5CCCCA6CCBEDAA410B7070010CEC82B
:100F8000D2C666DC6ADA6ED8B2D4B6D6BAD8C2DCBB
:100F9000C6DEA2CECACAD6C4DAC2DEC062DE26CCA3
:100FA0001727000013078767930830069302500243
:100FB00017F60000130686171308D007B7060211AC
:100FC00017F500001305451617FE0000130ECE0995
:100FD0001303F007130A000397290000938949506F
:100FE000130FC101A54E938CF7FF938DD5CC138DB4
:100FF000C5CC638A580A1C426344F80A9C46ED9BA0
:101000009CC61C41938517000CC1F29723801701E1
:101010001C4285071CC21C416356F30097F7000071
:1010200023A407109C461309170093E747009CC6AA
:10103000834817004A87E39E08FA7644E6445649F7
:10104000C649364AA64A164B864B725CE25C525D34
:10105000C25D09618280832806008C409104634E42
:10106000181F83AF860093F8F50F93F5BFFF8CC66A
:101070000C41938F15002320F501F2952380150173
:101080000C4285050CC20C416356B30097F5000075
:1010900023AC05088C4693E545008CC66391071C7C
:1010A0001309170071B783481700638D48059387AC
:1010B00008FD93F7F70F05079303000263EAFE2488
:1010C0008147BE8F93972F00FE9705078607C69727
:1010D00083480700938F07FD938508FD93F5F50F6F
:1010E000E3F2BEFEFE87E38A08F4938588FA93F55F
:1010F000F50F930F0002E3E0BFF08A05CE958C4117
:10110000CE9582850507930300035DBF83A8040085
:10111000014C910463C608248145294911A0FE8829
:10112000B3FF28032E848505B30ABF00938F0F03F6
:10113000A38FFAFFB3DF2803E3E31EFF13091700B1
:10114000630D0C2E638A431793880502930A0101ED
:101150001304D002D698938F1500238688FE63DC93
:10116000FF04832806006343180583A8860093F8CC
:10117000B8FF23A41601832805001384180000C1BA
:10118000F298238078008328060085082320160122
:10119000832805006356130197F8000023A608F87A
:1011A00083A8860093E8480023A41601FD17E3CA2C
:1011B000FFFAE38F0FE6FA9511A0BE851C42634D3E
:1011C000F8029C4683C80500ED9B9CC61C41938F8A
:1011D00017002320F501F297238017011C42850791
:1011E0001CC21C416356F30097F7000023AE07F2C0
:1011F0009C4693E747009CC69387F5FFE31FBFFA21
:1012000005BD83A80400014C910439B783A80400EC
:10121000910483CF080063820F040C428508E34ADF
:10122000B8FE8C46ED998CC60C411384150000C1A4
:10123000F2952380F5010C4285050CC20C416356E2
:10124000B30097F5000023A105EE8C4693E5450019
:101250008CC683CF0800E3920FFCE38307E4FD55BF
:10126000814F13091700F5BD834517009308C00689
:1012700013091700638A150F930F500783A8040002
:1012800091046389F519014C63D50800B308104136
:10129000054C8145A94A11A0FE88B3FF58032E844E
:1012A0008505330BBF00938F0F03A30FFBFFB3DF45
:1012B0005803E3E31EFF69B583280600634618055B
:1012C00083A8860093F8B8FF23A41601832805009D
:1012D000938F18002320F501F298930FD0022380FA
:1012E000F8018328060085082320160183280500BD
:1012F0006356130197F8000023A808E283A886002C
:1013000093E8480023A41601AE8FFD17A28581BD86
:101310008147D1BB814A80407A8991048145130B72
:10132000900321A89D08B3E81A0123001901118038
:10133000938F1500050919CCFE859378F40093E886
:101340000803E3611BFF230019011180938F15002F
:1013500005097DF01309170019B5930A000265BF4E
:10136000B3081041054C4DBB034427009D04E19890
:10137000930F500783A80400CC40A104630BF40B27
:1013800063CE0508AE8F4A87014CC68A8145939883
:101390004F0013D4CA0133E4880033749401B3F8C6
:1013A0009A0113D98F01A298CA981544B3F88802FC
:1013B0007E892EC68505330BBF0056C4B3881A41FB
:1013C00033B41A0133848F403304B403B38FA803BA
:1013D000B3BBB803A29FB388B803DE9F1394FF0189
:1013E00093DF1F0093D81800B368140113942800EA
:1013F0004694060433848A4013040403A30F8BFE2F
:10140000C68AE31609F82244E3E38EF8324413094E
:1014100017003DB34A87014C0509A5BD33371001BC
:10142000B305B040B38FE540B30810414A87054C7F
:10143000A9BF0907AE8F014C89BFAE8FA28505B346
:10144000597156DA5ED662D4930B8105930AC100B6
:10145000054CA6C24EDE52DC5AD8BED286C6A2C405
:10146000CAC066D26AD0B2CCB6CEBAD0C2D4C6D6C2
:101470005EC4172A0000130A2A1BA94797F400002C
:101480009384C4CA97F90000938909CA17FB000026
:10149000130B8BBD330C5C41B9A0B7060211984603
:1014A0001306F0076D9B98C603A709009306170063
:1014B00023A0D9005A972300F7009C4085079CC0C1
:1014C00083A709006356F60097F7000023AE07C410
:1014D000370702111C475289050A93E747001CC7CA
:1014E0008347190085C313075002638BE7029440BA
:1014F0001307D007E353D7FA5289130A1900834719
:101500001900F5F3B640264496440649F259625A4A
:10151000D25A425BB25B225C925C025D6561828062
:1015200003471A00930700036301F706930707FDBB
:1015300093F7F70FA54613091A00130D000263E78E
:10154000F6240144A54693172400A29705098607AF
:10155000BA9703470900138407FD930707FD93F724
:10156000F70FE3F2F6FE59DF130787FA1377F70F49
:101570009307000263E0E70297260000938686FE49
:101580000A0736971C43B697828713091A00130D72
:10159000000345BF834709004A8A91BF83A70B0018
:1015A0000146910B63CA0722814CA946254511A02B
:1015B000BA8733F7D702850CB3859A01130707035F
:1015C000A38FE5FE33D7D702E364F5FE130A1900B3
:1015D00009CE930700036305FD1A93870C028A97CF
:1015E0001307D0022386E7FE850C9387FCFF63DD9B
:1015F0008C041306D007370702119305F0079C40AF
:10160000634DF6021C47ED9B1CC783A70900938618
:10161000170023A0D900DA972380A7019C408507F3
:101620009CC083A7090063D6F50097F7000023AD9F
:1016300007AE1C4793E747001CC77D14E3C18CFC31
:101640009387FCFFE38E0CE8D6971305D007B70607
:1016500002111308F00711A0BA879840634FE50202
:10166000984603C607006D9B98C603A7090093051B
:10167000170023A0B9005A972300C7009840050718
:1016800098C003A709006356E80017F70000232D50
:1016900007A898461367470098C61387F7FFE39D8E
:1016A000FAFA3DBD83A70B000146910BF5BD03A7D8
:1016B0000B001305D007370602111308F007834605
:1016C0000700B9C29C400507E34BF5FE1C46ED9BA5
:1016D0001CC683A709009385170023A0B900DA97D9
:1016E0002380D7009C4085079CC083A709006356D0
:1016F000F80097F7000023A907A21C4693E74700CC
:101700001CC683460700DDFE910B814C130A1900AD
:10171000E31104EEF1B303C50B00814C910BEFE034
:10172000FF96130A1900E31604EC130A1900C1BB53
:10173000034719009307C006130A19006302F70A4A
:101740009306500783A70B00910B6305D71401463E
:1017500063D50700B307F0400546814CA9462545EF
:1017600011A0BA8733F7D702850CB3859A01130706
:101770000703A38FE5FE33D7D702E364F5FE89BDE7
:101780001305D002EFE09F907D1485B50144E1BBC5
:10179000814503A70B00D686910B1306900311A871
:1017A0009D07CD8F2380F6001183B30CDC008506E6
:1017B00011CF9377F70093E70703E363F6FE2380E7
:1017C000F6001183B30CDC00850665F7130A1900D7
:1017D00029BD9305000275BFB307F0400546E9B384
:1017E000034629009D0B93FB8BFF9306500783A7AD
:1017F0000B0003A74B00A10B630DD60A6340070A39
:10180000BA8552890146B7D8CCCC37080010138569
:10181000D8CC814C7D1815439388C8CC254E19A08F
:10182000BA87B6851397450093D6C701D98EB3F60C
:10183000060133F70701369793D68501369733773C
:101840006702850CB38E9A013387E740B3B6E70091
:10185000B386D540B30F1703B386A602333FA70262
:10186000FE963307A702FA96139FF6018582058339
:101870003367EF00131F27003A9F060F338FE741AE
:10188000130F0F03A38FEEFFC1FDE36BFEF8130AE6
:1018900019003DBB52890146050AC1B5B336F000B7
:1018A0003307E040B307F040B305D74052890546FF
:1018B00099BF0909BA850146B9B701113AC82ECEB8
:1018C00032CC36CA3EC6370702111C478583858B4A
:1018D00089C75C438583858BA5EF370702111C47B9
:1018E0008983858BB1CF5C438983858BB1CB97F797
:1018F00000009387A78217F600000326E682944330
:10190000630ED6088C4317F60000130626829386D2
:10191000150094C397E6000093860675AE9683C6BD
:1019200006009305F00793F6F60F14C318427D17CF
:1019300018C29C4363D6F50097E7000023A0077EFA
:10194000F2456246D2464247B247056173002030F5
:1019500097E600009386067D1843904297E70000C3
:10196000938787701377F70FB2972380E70897E77D
:1019700000009387E77A90437547E340C7F69842A3
:101980007D46050798C29843050798C39C42E356D5
:10199000F6F497E7000023A7077881B797E70000E0
:1019A00023A607781C47ED9B1CC759BF39713ECC55
:1019B00006DE16DC1ADA1ED82AD62ED432D236D05B
:1019C0003ACE42CA46C872C676C47AC27EC0B787CB
:1019D0000111DC438583858B85C397E7000083A7CE
:1019E000A77391C717E500000325C5728297378753
:1019F00001115C43F59B5CC3F250E2525253C25357
:101A00003255A255125682567247E2475248C24892
:101A1000324EA24E124F824F216173002030416737
:101A2000B70700117D1723A2E74082802A8311C6E1
:101A30002300B3007D16050365FE8280B707011001
:101A40001307800523ACE7127D558280B70701108C
:101A50001307800523ACE7127D558280B70701107C
:101A60001307800523ACE7127D558280B70701106C
:101A70001307800523ACE71201458280B7070110E8
:101A80001307800523ACE7127D558280B70701104C
:101A90001307800523ACE7127D558280B70701103C
:101AA0001307800523ACE7127D55828037070110AC
:101AB0008327C71291C73E952326A7123E858280B1
:101AC000B7070110938707143E952326A7123E857A
:101AD0008280B70701101307800523ACE7127D55FC
:101AE000828001A017E101001301C151972C000071
:101AF000938C4CD117ED0000130DCD5097ED0000E5
:101B0000938D8D56635ABD0103AE0C002320CD0189
:101B1000910C110DE3DAADFF17ED0000130DCD545C
:101B200097ED0000938DCD616357BD0123200D001B
:101B3000110DE3DDADFF1305000093050000EF007C
:101B4000A0006F00400001A05D71A2C4A6C286C6BD
:101B5000CAC04EDE52DC56DA5AD85ED662D466D29D
:101B60006AD06ECE371401111C48B70400114167CA
:101B700093E717001CC81C487D1793E727001CC873
:101B80001448B717001193E6460014C823A2044076
:101B900023A4E44023A2040098C403A78780799B70
:101BA00023A4E78083A6878037070211F59A23A430
:101BB000D78083A68780ED9A23A4D78083A68780C9
:101BC000DD9A23A4D7809C44E176FD16F58F9CC452
:101BD0001C4893E707011CC81C47F99B1CC79307C7
:101BE000C0065CC797E7000023A2075497E70000F0
:101BF00023A6075297E7000023A8075297E70000A3
:101C000023A0075297E7000023A0075097E70000A2
:101C100023AA07501C4793E727001CC71C4793E7DC
:101C200017001CC7F322403005435203B3E26200A1
:101C300073904230F322003093E2820073900230BE
:101C4000972500009385459E17E5FFFF1305454442
:101C5000EFF00FFF97E7FFFF9387874917E7000033
:101C6000232CF74A97E7000023A6074AF3224030C7
:101C700005434203B3E26200739042301848B787CD
:101C800001111367870018C89847799B98C7984730
:101C90001367270098C7196723A007001307771A4F
:101CA000D8C71307007D98CB98471367170098C7CC
:101CB0009C40BD83858B639A073617E600001306A8
:101CC000E6441842B706001105079C423A8505070D
:101CD000BD83858BFDDB08C2B12E37C72D00B7470A
:101CE00002111307474C98C313076013D8C3130797
:101CF000001C98C70547D8C798CB7D261307A02797
:101D0000B366E502B747021102C61969B70B0300B3
:101D1000378BA800814D014CFD5A7D5A97E9000090
:101D20009389093F37440211371D0011B78401110F
:101D30001309791A938B3B30130B2B53D4CBAD265D
:101D40009306A01D3366D502B7470211930680F3B0
:101D500090CFD4CF94D3D4D394D75C4091E3854C27
:101D60001C4491E3894C54409307B02663F3D70099
:101D70008D4C14449307F01B63F3D700914C8327D9
:101D80000D80858B81CB144885476385F6001C4800
:101D9000FD171CC883270D808D83858B91CB1C4834
:101DA0009306401A850763E5F6001C4885071CC8A2
:101DB00083270D808583858B81CB5444854763853C
:101DC000F6005C44FD175CC483270D808983858BF6
:101DD00091CB5C4493062024850763E5F6005C44C0
:101DE00085075CC48D476385FC169147638EFC14A0
:101DF00089476383FC1656868545054A5C40B716BD
:101E00000111AE975CC01C44B2971CC49C4A93E776
:101E100087009CCA9C44F99B9CC4DC40F59BDCC0B9
:101E200023A0040023A62401B1479CC89C4493E747
:101E300017009CC4DC408583858BEDDF63920D0623
:101E40001C4C14489D0763E3D702144C1C4893872D
:101E5000C70363EDD70054485C449387E70363E707
:101E6000D7005C4854449D0763FED70E1C441448B9
:101E70009387070263E6D70214441C489387C7037D
:101E800063E0D70254405C449387E70363EAD70CCE
:101E90005C405444D10763E5D70CB247638807120E
:101EA000A9476300FC04634D0C06B7270211FD56D9
:101EB00094C3D4C394C723A687016E8697150000E8
:101EC0009385857217E5FFFF1305851CEFE0CFA210
:101ED00083A70900E38307E897E7000023AA072206
:101EE000ADBD930780F35CC01CC45CC41CC85CC857
:101EF0001CCC9306700E54CC9306800D14D05CD08D
:101F00001CD423206401B7270211FD5694C3D4C307
:101F1000854694C723A60700854D45B785473EC62D
:101F2000930780F35CC01CC45CC41CC85CC81CCC98
:101F30005CCC1CD0930710105CD09307300C1CD4E1
:101F400023207401854D95B7D2857D56FD5A7DB508
:101F50005686FD557D5A5DB5D2850546854A79BDC3
:101F600002C63DBF971500009385456B17E5FFFF3F
:101F700013050512EFE0BFFF052A9307A027B367FB
:101F8000F502050C5CC80D229307A01DB367F5028E
:101F9000971500009385C56617E5FFFF1305450FEC
:101FA0001CCC5048EFE09FAF6286971500009385E8
:101FB000656417E5FFFF1305A50DEFE00FE1A947E5
:101FC00063CA87031C40A9071CC04DB57D1C6286EF
:101FD000971500009385056217E5FFFF1305450B74
:101FE000EFE0AFDEE34C0CF21C4005473AC6D917D0
:101FF0001CC07DB51C44144893870702E3E7D7EA69
:1020000014441C489387C703E3E1D7EA54405C4477
:102010009387E70363E9D7005C405444D107E3FEAC
:10202000D7E602C649B502C649B517E50000032543
:10203000E50D5DB14111B707011026C283A4070663
:1020400022C406C69C5C2A84B9E761459D2288DCCF
:1020500009EDB736001037350010938686650146C6
:102060009305200413050567CD20B737CDAB9387C3
:10207000E7301CC1B7176DE6938747235CC1B7E70C
:1020800005009387C7EE1CC5AD472316F50005472D
:10209000814718C95CC99C5CB240924480CB224401
:1020A00023AA0700410182804111B707011022C411
:1020B00003A4070606C61C5CB9E76145DD2808DCF9
:1020C00009EDB73600103735001093868665014656
:1020D0009305E004130505678D28B737CDAB9387CB
:1020E000E7301CC1B7176DE6938747235CC1B7E79C
:1020F00005009387C7EE1CC5AD472316F5000547BD
:10210000814718C95CC90C5CB786954C37F65158A5
:102110009849DC499386D6F21306D6423306C702A5
:10212000B2402244B387D7023305D702B297333780
:10213000D702BA97130715003335A7003E95C8C9D3
:1021400098C90605058141018280B707011083A760
:1021500007064111328806C6AA882E87C8473686E8
:10216000630E0800B73700109387876CB7350010EF
:10217000C6869385856D1128EF00B024373800108E
:102180009307486113084861D5B739713EDAB7073C
:10219000011032D42E86AA8503A5070636D6341040
:1021A00006CE3AD842DC46DE36C61924F24021611A
:1021B0008280B7070110AA8503A5070665A0D5C1CF
:1021C00083A7C5FF011122CC06CE1384C5FF63D3BC
:1021D00007003E942AC6EF00906E37070110832750
:1021E0000713324591EB232204002328871262440F
:1021F000F24005616F00D06C637DF4001040B306BF
:10220000C4006396D7009443DC43B29614C05CC00C
:10221000E9BF3E87DC4399C3E37DF4FE14433306F4
:10222000D700631F86001040B29614C33306D70050
:10223000E39FC7FA9043DC43B29614C35CC345BF27
:102240006375C400B1471CC15DB71040B306C4003C
:102250006396D7009443DC43B29614C05CC040C37D
:1022600079B78280011126CA93843500F1984AC853
:1022700006CE22CC4EC6A104B1472A8963F8F404E5
:10228000B14463E7B4044A85EF007063B7070110F7
:10229000138707131843938607133A8429E43704F6
:1022A0000110130444131C4089E781454A85212FFE
:1022B00008C0A6854A85012FFD59631A3507B14725
:1022C0002320F9004A85EF00B05F31A0E3DB04FA78
:1022D000B1472320F9000145F2406244D24442490B
:1022E000B249056182801C40858F63CF07022D466D
:1022F0006376F6001CC03E9404C029A05C406313C2
:1023000087029CC24A85EF00B05B1305B4009307B7
:10231000440061993307F540E300F5FC3A94898F56
:102320001CC05DBF5CC3F9BF2287404085BF13045A
:1023300035007198E30285FCB305A4404A85612508
:10234000E31C35FBADBF1C46FD171CC663D9070057
:10235000184E63C5E700A9476393F50069AD1C42B9
:102360002E851387170018C22380B70082800111C1
:1023700022CC26CA4AC84EC652C406CE2A89AE8985
:102380003284B304D6007D5A63149400014509A831
:10239000834504004E864A857D370504E31645FFD4
:1023A000F2406244D2444249B249224A05618280E5
:1023B000717122D526D34AD14ECF06D752CD56CBF6
:1023C0005AC95EC762C566C36AC1EEDEAA89AE8419
:1023D0003289368409C51C4D99E3EF00F025B737E3
:1023E00000109387C77B6395F40E83A4490083D7BD
:1023F000C400A18B638007109C48638D070E930770
:102400000002A304F1029307000302D22305F102A4
:1024100022C6930C5002373B0010B73B0010373DEB
:102420000010372C0010930A00004A8483470400F0
:1024300099C36396970FB30D2441630D2401EE8673
:102440004A86A6854E852537FD576305F51E9257AA
:10245000EE973ED283470400638E071CFD57130995
:10246000140002C802CE3ECA02CCA309010482D4E1
:10247000854D83450900154613058B70EF0090428A
:10248000C2471304190051ED13F7070109C71307D9
:102490000002A309E10413F7870009C71307B0027C
:1024A000A309E104834609001307A0026384E60838
:1024B000F2474A848146254629450347040093058F
:1024C0001400130707FD637CE60AADCE3ECE9DA83F
:1024D000B73700109387C77D6395F40083A4890004
:1024E00039B7B73700109387C779E392F4F083A424
:1024F000C900F5BDA6854E857D2BE30205F07D550F
:10250000BA502A549A540A59FA496A4ADA4A4A4B42
:10251000BA4B2A4C9A4C0A4DF65D4D6182800504F7
:1025200031B713078B70198D3395AD00C98F3EC835
:10253000228981B7324793064700184336C663495C
:1025400007023ACE034704009307E0026310F70640
:10255000034714009307A002631BF702B247090464
:10256000138747009C433AC663C107023ECA3DA891
:102570003307E04093E727003ACE3EC8E1B7B38780
:10258000A7022E848546BA970DBFFD57C5B705042F
:1025900002CA814681472546294503470400930521
:1025A0001400130707FD637FE604E9F28345040086
:1025B0000D4613850B71EF00F02E01CD93870B7143
:1025C0001D8DC247130700043317A700D98F0504D8
:1025D0003EC883450400194613054D7113091400C4
:1025E0002304B102EF00102C31CD63970A02424759
:1025F000B2471377071009CF91073EC69257D2977B
:102600003ED225B5B387A7022E848546BA9771B707
:102610009D07E19BA107D5B778009306EC36268687
:102620000C084E8597000000E7000000FD572A8A3D
:10263000E316F5FC83D7C40093F70704E39107EC96
:1026400012557DBD78009306EC3626860C084E8523
:10265000112AE9BF797152CC9C493A8A984522D413
:102660004AD04ECE56CA06D626D25AC85EC6AA89C7
:102670002E843289B68A63D3E700BA872320F90013
:102680000347340401C785072320F9001C4093F752
:10269000070291C78327090089072320F900044016
:1026A000998891E8130B9401FD5B5C4403270900B2
:1026B000998F63CCF40483473404B336F0001C4094
:1026C00093F70702A5EB13063404D6854E85029ACC
:1026D000FD576303F5041C4011478144998B6399AE
:1026E000E7004444832709009D8C63D304008144A0
:1026F0001C4418486354F700998FBE94014969043B
:102700007D5B63982405014509A885465A86D685D0
:102710004E85029A631E75017D55B2502254925423
:102720000259F249624AD24A424BB24B4561828019
:102730008504A5BF3307D40013060003A301C70413
:102740000347540493871600A2978906A381E704E0
:102750009DBF85462286D6854E85029AE30E65FB8F
:10276000050945B7797122D426D24AD04ECE06D675
:1027700052CC56CA5AC883C8850193078007AA84D9
:102780002E843289B68963EE17019307200693865B
:10279000350463ED1701638E081A93078005638F74
:1027A000F816930A2404230114050DA89387D8F979
:1027B00093F7F70F5546E366F6FE373600108A07A3
:1027C00013064674B2979C4382871C43938A250460
:1027D000938647009C4314C32381F504854769AA67
:1027E0009C41084313F60708930545000DC21C41A0
:1027F0000CC33738001063D807001307D002B307A3
:10280000F040A301E4041308C8712947A1A013F6FE
:1028100007041C410CC371DEC207C187D9BF9041B8
:102820001C43137506089385470001C50CC39C43E0
:1028300039A0137606040CC37DDA83D70700373836
:1028400000101307F0061308C871638EE80C2947BF
:10285000A3010404504010C4634506000C40ED99E8
:102860000CC099E3B68A19CEB68A33F6E702FD1A90
:102870004296034606002380CA003E86B3D7E7028D
:10288000E375E6FEA147631EF7001C40858B91CBE4
:1028900058401C4863C7E70093070003A38FFAFE64
:1028A000FD1AB386564114C84E87CA867000A285A9
:1028B00026854D337D5A6315450D7D55B250225402
:1028C00092540259F249624AD24A424B456182808F
:1028D0009C4193E707029CC137380010930880079A
:1028E00013080873A302140510400C43137506085F
:1028F0009C41910511E51375060419C1C207C183F6
:102900000CC31377160001C71366060210C04147B7
:10291000A1F310401376F6FD10C01DBF373800102C
:102920001308C871C1B7214725B790411C43CC4952
:1029300013780608138547006306080008C39C4304
:102940008CC301A808C3137606049C4375DA239050
:10295000B70023280400B68A81BF1C43D0418145BB
:102960009386470014C383AA07005685252F01C507
:102970003305554148C05C401CC8A30104042DB771
:1029800014485686CA8526858299E30845F31C407B
:10299000898B8DE7B2474844E352F5F23E8539BF53
:1029A00085465686CA8526858299E30865F1050A1B
:1029B0005C443247998FE345FAFEE9BF014A930A26
:1029C00094017D5BF5B7411122C426C22A84B70465
:1029D00001102E8506C623AC0412EFF02F8DFD5793
:1029E0006316F50083A7841391C31CC0B240224430
:1029F000924441018280011122CC26CA4AC806CEE7
:102A00004EC6AA842E89328401C51C4D91E32D2126
:102A1000B73700109387C77B6319F406C0401C4C7E
:102A20001CC48357C400A18BC9C31C48BDCF1C481C
:102A300008409379F90F1379F90F1D8D5C486346AF
:102A4000F500A2852685C92C2DE51C440505FD173A
:102A50001CC41C401387170018C0238037015C4832
:102A60006389A7008357C400858B81CBA947631670
:102A7000F900A28526854D240DEDF2406244D24432
:102A8000B2494A85424905618280B7370010938771
:102A9000C77D6314F400804459B7B737001093879B
:102AA000C779E31EF4F6C0449DBFA2852685212088
:102AB0003DDD7D59D9B74111B707011026C283A466
:102AC000070622C44AC006C62A892E8489C49C4CA3
:102AD00099E326859526B73700109387C77B631740
:102AE000F402C0408317C4001397070193F68700D0
:102AF0004183B5EA9376070195EA25472320E9004B
:102B000093E707042316F4007D5579A8B737001022
:102B10009387C77D6314F4008044E9B7B73700108A
:102B20009387C779E310F4FCC0446DBF118B15C7C0
:102B30004C5891C9930744046385F5004A85EFF02A
:102B40000FE8232A04028357C4002322040093F7CA
:102B5000B7FD2316F4001C481CC08357C40093E73C
:102B600087002316F4001C4881EF8357C400130725
:102B7000002093F707286385E700A2854A85612135
:102B80008317C4001397070193F6170041839DC272
:102B9000544823240400B306D04014CC1448014503
:102BA00081E61377070829FFB24022449244024984
:102BB0004101828093762700014691E2504810C47B
:102BC000F1BF4111194506C6B12B0545EFE07FF174
:102BD00083D7C500011122CC26CA06CE4AC84EC6EC
:102BE00013F78700AA842E847DE3D8416347E00071
:102BF000B8416344E00001457DA858546DDF856607
:102C000003A90400F58F23A004000C50ADCF684841
:102C10008357C400918B99C75C401D8D5C5899C344
:102C20003C401D8D5C540C502A8681462685829737
:102C3000FD570357C400631DF5009440F54763E357
:102C4000D708B707C0DFF917B3D7D740858BBDEBDF
:102C50001C48232204001CC085677D8F19C7FD57BF
:102C60006314F5009C4091E368C84C5823A02401EC
:102C7000D9D1930744046385F5002685EFF02FD45E
:102C8000232A04028DBF8546014626850297FD57FB
:102C9000E310F5F89C40ADDF75476385E7005947C1
:102CA0006395E70023A02401B9B78357C40093E7D5
:102CB00007042316F400F2406244D2444249B24968
:102CC00005618280136707042316E400EDB783A92A
:102CD0000501E38209F203A905008D8B23A03501CC
:102CE00033093941014791E3D84918C4E35520F12C
:102CF0001C540C50CA864E8626858297634AA000D3
:102D00008357C4007D5593E707042316F40065B785
:102D1000AA993309A940D9BF9C49B9CF011122CC46
:102D200006CE2A8411C51C4D81E72EC63122B2453C
:102D3000B73700109387C77B639BF5004C408397A0
:102D4000C50095C722856244F240056151B5B73789
:102D500000109387C77D6394F5000C44CDB7B73757
:102D600000109387C779E39CF5FC4C44C9BFF2403F
:102D7000624401450561828001458280411122C47F
:102D800006C62A842316B5002317C5002320050094
:102D900023220500232405002322050623280500FD
:102DA000232A0500232C0500214681451305C5056E
:102DB000EFE0DFC7B7370010938767165CD0B737EF
:102DC0000010938767191CD4B73700109387471EEC
:102DD0005CD4B73700109387A721B24000D01CD82D
:102DE000224441018280B7350010938585D189AA9C
:102DF000411126C2930780069384F5FFB384F40241
:102E00004AC02E8922C406C693854407EFF08FC5B9
:102E10002A8401CD2320050023222501310508C481
:102E2000138684068145EFE07FC0B24022852244AC
:102E300092440249410182801C4DBDE34111B737E4
:102E4000001022C406C6938767DE1CD5B737001072
:102E500083A7C77F2324050423260504232805040C
:102E60002A846314F50085471CCD22851D2848C09F
:102E70002285052808C422852D2048C448400146E3
:102E80009145ED3D08440546A545CD3D48440946DC
:102E9000C945ED358547B2401CCC224441018280B2
:102EA00082804111B737001026C283A4C77F4AC071
:102EB00006C69C4C22C42A8999E32685B53F938493
:102EC00084048044DC40FD1763D607009C40B9CFE2
:102ED0008440C5BF0317C40039E7C17785072322A3
:102EE00004062320040023220400232404005CC4DD
:102EF00023280400232A0400232C040021468145B2
:102F00001305C405EFE09FB2232A0402232C040218
:102F10002324040423260404B2402285224492443C
:102F20000249410182801304840671BF91454A859C
:102F3000C13588C02A8449FDB1472320F900E9BF83
:102F4000797122D44AD04ECE52CC5AC85EC606D62B
:102F500026D256CA2A892E8A130485048149054B34
:102F6000FD5B0444832A4400FD1A63D00A0200403A
:102F70006DF8B250225492540259624AD24A424BDE
:102F8000B24B4E85F2494561828083D7C400637B92
:102F9000FB008397E40063877701A6854A85029A40
:102FA000B3E9A90093848406C1B75971A2D42E84D1
:102FB0008395E500A6D2CAD086D6B284368963D47A
:102FC00005028357C40093F7070885CF814713078D
:102FD0000004B65026542320F90098C00659965490
:102FE0000145656182803000712CE34C05FC32475D
:102FF000BD67F98F7977BA9793B717001307004029
:10300000C9BF8147E5BF83D7C500011122CC06CED9
:1030100026CA4AC8898B2E8489CF930774041CC0A2
:103020001CC885475CC8F2406244D24442490561ED
:10303000828074003000AA848D3FA2452A892685AB
:10304000EFF04FA201ED8317C40013F7072061FFD3
:10305000F19B93E727002316F400C1B7B7370010A0
:10306000938767DE9CD48357C40008C008C893E7E1
:1030700007082316F400A2475CC8B24789CF83151E
:10308000E40026850D2C01C98357C400F19B93E70A
:1030900017002316F4008357C40033E527012316D5
:1030A000A40051B793F5F50F2A966314C5000145A6
:1030B000828083470500E38DB7FE0505FDB782805A
:1030C0008280011122CC06CEFD472A8463F9B70025
:1030D000D9471CC17D55F2406244056182807C4124
:1030E0002E8691C713972500BA97984319EB22852E
:1030F00032C68528AA85228562443246F24005619F
:1031000005A885460145E308D7FCFD566316D700A0
:10311000D9471CC00545C1B72E8523A007000297DB
:10312000014555BFB7070110AA8503A5070651BF82
:10313000411122C426C22A84B70401102E85B2850B
:1031400006C623AC0412EFE07F93FD576316F5002B
:1031500083A7841391C31CC0B2402244924441010E
:1031600082806FE0BF8F411122C42E848395E500D9
:1031700006C66522634905007C48AA977CC8B24010
:103180002244410182808357C4007D777D17F98FE7
:103190002316F400EDB783D7C500011122CC26CA4F
:1031A0004AC84EC606CE93F70710AA842E843289E9
:1031B000B68991C78395E500894601462D2283573C
:1031C000C4007D777D17F98F8315E4002316F40082
:1031D0006244F240CE864A86B24942492685D244AC
:1031E00005613DA8411122C42E848395E50006C6E1
:1031F000DD287D578357C400631BE5007D777D176D
:10320000F98F2316F400B240224441018280056701
:10321000D98F2316F40068C8FDB78395E5001DA873
:10322000411122C426C22A84B70401102E85B2851A
:10323000368606C623AC0412EFE0BF89FD5763163D
:10324000F50083A7841391C31CC0B240224492446A
:1032500041018280411122C426C22A84B704011090
:103260002E8506C623AC0412EFE04FFDFD57631612
:10327000F50083A7841391C31CC0B240224492443A
:1032800041018280411122C426C22A84B704011060
:103290002E85B28506C623AC0412EFE02FFBFD5746
:1032A0006316F50083A7841391C31CC0B240224467
:1032B000924441018280411122C426C22A84B7046B
:1032C00001102E8506C623AC0412EFE02FFAFD573D
:1032D0006316F50083A7841391C31CC0B240224437
:1032E000924441018280411122C426C22A84B7043B
:1032F00001102E85B285368606C623AC0412EFE097
:10330000EFF8FD576316F50083A7841391C31CC023
:10331000B2402244924441018280411122C426C21B
:103320002A84B70401102E85B285368606C623ACE2
:103330000412EFE0AFF6FD576316F50083A7841380
:1033400091C31CC0B24022449244410182800000DB
:103350004ED1FFFF30CEFFFF30CEFFFF30CEFFFF5C
:1033600030CEFFFF30CEFFFF30CEFFFF30CEFFFF6D
:1033700030CEFFFF30CEFFFF30CEFFFF90CEFFFFFD
:1033800046CFFFFF30CEFFFF30CEFFFF30CEFFFF36
:1033900030CEFFFF46CFFFFF30CEFFFF30CEFFFF26
:1033A000A2D0FFFF30CEFFFF30CEFFFF30CEFFFFB9
:1033B00030CEFFFF30CEFFFF30CEFFFF46D0FFFF05
:1033C00030CEFFFF3CD0FFFF30CEFFFF30CEFFFFFF
:1033D00094D1FFFF9CD5FFFF7ED2FFFF7ED2FFFF7F
:1033E0007ED2FFFF7ED2FFFF7ED2FFFF7ED2FFFFA5
:1033F0007ED2FFFF7ED2FFFF7ED2FFFF7ED2FFFF95
:10340000DED2FFFF94D3FFFF7ED2FFFF7ED2FFFF0D
:103410007ED2FFFF7ED2FFFF94D3FFFF7ED2FFFF5D
:103420007ED2FFFFF0D4FFFF7ED2FFFF7ED2FFFFF0
:103430007ED2FFFF7ED2FFFF7ED2FFFF7ED2FFFF54
:1034400094D4FFFF7ED2FFFF8AD4FFFF7ED2FFFF1E
:103450007ED2FFFFE2D5FFFFEAD9FFFFCCD6FFFF08
:10346000CCD6FFFFCCD6FFFFCCD6FFFFCCD6FFFFDC
:10347000CCD6FFFFCCD6FFFFCCD6FFFFCCD6FFFFCC
:10348000CCD6FFFF2CD7FFFFE2D7FFFFCCD6FFFF44
:10349000CCD6FFFFCCD6FFFFCCD6FFFFE2D7FFFF95
:1034A000CCD6FFFFCCD6FFFF3ED9FFFFCCD6FFFF27
:1034B000CCD6FFFFCCD6FFFFCCD6FFFFCCD6FFFF8C
:1034C000CCD6FFFFE2D8FFFFCCD6FFFFD8D8FFFF56
:1034D000CCD6FFFFCCD6FFFF30DAFFFF38DEFFFF90
:1034E0001ADBFFFF1ADBFFFF1ADBFFFF1ADBFFFF10
:1034F0001ADBFFFF1ADBFFFF1ADBFFFF1ADBFFFF00
:103500001ADBFFFF1ADBFFFF7ADBFFFF30DCFFFF78
:103510001ADBFFFF1ADBFFFF1ADBFFFF1ADBFFFFDF
:1035200030DCFFFF1ADBFFFF1ADBFFFF8CDDFFFF44
:103530001ADBFFFF1ADBFFFF1ADBFFFF1ADBFFFFBF
:103540001ADBFFFF1ADBFFFF30DDFFFF1ADBFFFF97
:1035500026DDFFFF1ADBFFFF1ADBFFFF7EDEFFFF2A
:1035600030E2FFFF34E0FFFF34E0FFFF34E0FFFF15
:1035700034E0FFFF34E0FFFF34E0FFFF34E0FFFF03
:1035800034E0FFFF34E0FFFF34E0FFFFB6E1FFFF70
:103590003CE0FFFF34E0FFFF34E0FFFF34E0FFFFDB
:1035A00034E0FFFF3CE0FFFF34E0FFFF34E0FFFFCB
:1035B000D0E1FFFF34E0FFFF34E0FFFF34E0FFFF26
:1035C00034E0FFFF34E0FFFF34E0FFFF4EE1FFFF98
:1035D00034E0FFFF44E1FFFF34E0FFFF34E0FFFF92
:1035E00072E2FFFF454E44203D2025640A20200062
:1035F00053434F52453D2025640A00004D595F5604
:1036000047412E58335F506F736974696F6E203D68
:103610002025640A00000000636F6C6C6973696F99
:103620006E0A00000A232323232323232323232397
:10363000232323232323232323230A44454D4F0AF3
:10364000232323232323232323232323232323234A
:1036500023232323230A00005245454E54206D6145
:103660006C6C6F63207375636365656465640000EB
:103670002F686F6D652F7468656F5F736F72696116
:103680006E6F2F776F726B73706163652F726973E2
:1036900063762D676E752D746F6F6C636861696EEC
:1036A0002F72697363762D6E65776C69622F6E6514
:1036B000776C69622F6C6962632F7374646C6962E2
:1036C0002F72616E642E63002C2066756E637469C0
:1036D0006F6E3A2000000000617373657274696F49
:1036E0006E2022257322206661696C65643A20662B
:1036F000696C6520222573222C206C696E6520255B
:1037000064257325730A0000232D302B2000000050
:10371000686C4C00656667454647000030313233BF
:1037200034353637383941424344454600000000BD
:103730003031323334353637383961626364656627
:1037400000000000CA270010E0270010A227001088
:10375000A2270010A2270010A2270010E0270010C7
:10376000A2270010A2270010A2270010A2270010F5
:103770002A2900101E280010D0280010A2270010AF
:10378000A22700105A290010A22700101E2800109E
:10379000A2270010A2270010D82800100000000067
:1037A0000000000000000000000000000000000019
:1037B0000000000000000000000000000000000009
:1037C00000000000000000000000000000000000F9
:1037D00000000000000000000000000000000000E9
:1037E00000000000000000000000000000000000D9
:0C37F000000000000000000000000000CD
:0437FC0000000110B8
:1038000000000000BC370010DC3700109C370010AF
:1038100000000000000000000000000000000000A8
:103820000000000000000000000000000000000098
:103830000000000000000000000000000000000088
:103840000000000000000000000000000000000078
:103850000000000000000000000000000000000068
:043860000000011053
:0400000510000000E7
:00000001FF
